:1000000009C03AC020C04BC01EC01DC01CC01BC0D0
:100010001AC019C011241FBECFE9CDBF10E0A0E661
:10002000B0E0E2E2F3E002C005900D92A236B10723
:10003000D9F720E0A2E6B0E001C01D92A736B207D2
:10004000E1F7BED06CC1DCCF882349F0EFE2F5E7E1
:100050003197F1F700C00000A8958150F5CF0895C1
:10006000882349F0E7EBFBE03197F1F700C000008F
:10007000A8958150F5CF08951F920F920FB60F9259
:1000800011248F9380916600811103C081E08093D9
:1000900062008F910F900FBE0F901F9018951F92C6
:1000A0000F920FB60F9211242F933F934F938F937C
:1000B0009F93809163008F5F809363008A3071F417
:1000C0001092630080916400882341F081508093F6
:1000D0006400882319F082E08093620080916600BA
:1000E000909165008823C9F081508093660081114A
:1000F00014C0F1FC12C046B38F2D817031E083270C
:10010000469541708427F2FA222720F9821729F0B8
:10011000911103C0309362000AC0992341F09150BD
:1001200090936500911103C0C598C298C3989F91A0
:100130008F914F913F912F910F900FBE0F901F9075
:100140001895CF9380E090E0D0D0882311F0C2E0E2
:1001500001C0C0E0FC2E81E090E0C7D091E08111A9
:1001600001C090E0C92BFC2E86E090E0BED0882331
:1001700011F088E001C080E08C2BF82ECF9108951B
:1001800060E080E090E0B9D061E081E090E0B5D03F
:1001900062E084E090E0B1D065E083E090E0ADD033
:1001A00060E085E090E0A9D060E082E090E0A5D03A
:1001B00061E086E090E0A1D06FE087E090E09DC034
:1001C00080E886BD93E096BDC498BC9AC598BD9A58
:1001D00087B38C6087BBC09A81E285BF81E085BD13
:1001E0008BB780648BBF80E48ABF9FBD8DE083BFE7
:1001F00089B7826089BF85E786BF80E090E075D0CF
:100200008F3F09F4BDDF9DDF7894C59A85E01CDF40
:10021000C59882E090E069D09F2DF1FE06C088234A
:1002200071F082E0809362000AC036B3917021E0E1
:10023000922736953170931791F320936200C1E0B5
:10024000A89580916200882309F44DC0823071F135
:10025000F3FE18C087E090E048D002DF4F2D4170D8
:100260004C2726B326952170242730E0809160002A
:1002700090E028173907A9F186B386958170842705
:10028000809360008F2DF1FE05C0F2FE0AC0C39876
:10029000C29A0FC096B381708C279695917089177A
:1002A00029F0C298C39A8F2D846004C0C398C29A63
:1002B0008F2D8B7FF82E12BEC59AF2FE07C0C49A0E
:1002C00085E090E012D08093640001C0C49884E07F
:1002D00090E00BD08093650083E090E006D080939F
:1002E0006600109262008895ABCFE199FECF1FBAED
:1002F0008EBBE09A99278DB30895262FE199FECF02
:100300001FBA8EBBE09A81500DB2021639F01CBAAA
:100310002DBB0FB6F894E29AE19A0FBE0895F894B7
:02032000FFCF0D
:02032200FF00DA
:00000001FF
